{
  "contractName": "Game",
  "abi": [
    {
      "constant": true,
      "inputs": [],
      "name": "playerTwo",
      "outputs": [
        {
          "name": "",
          "type": "address"
        }
      ],
      "payable": false,
      "stateMutability": "view",
      "type": "function",
      "signature": "0x0a9f85dd"
    },
    {
      "constant": true,
      "inputs": [],
      "name": "playerOne",
      "outputs": [
        {
          "name": "",
          "type": "address"
        }
      ],
      "payable": false,
      "stateMutability": "view",
      "type": "function",
      "signature": "0xbcffcf41"
    },
    {
      "constant": true,
      "inputs": [],
      "name": "boardSize",
      "outputs": [
        {
          "name": "",
          "type": "uint8"
        }
      ],
      "payable": false,
      "stateMutability": "view",
      "type": "function",
      "signature": "0xc51d69f4"
    },
    {
      "inputs": [],
      "payable": false,
      "stateMutability": "nonpayable",
      "type": "constructor",
      "signature": "constructor"
    },
    {
      "constant": false,
      "inputs": [],
      "name": "joinGame",
      "outputs": [],
      "payable": false,
      "stateMutability": "nonpayable",
      "type": "function",
      "signature": "0xd4f77b1c"
    },
    {
      "constant": true,
      "inputs": [],
      "name": "getBoard",
      "outputs": [
        {
          "name": "",
          "type": "address[3][3]"
        }
      ],
      "payable": false,
      "stateMutability": "view",
      "type": "function",
      "signature": "0x3264a34b"
    },
    {
      "constant": false,
      "inputs": [
        {
          "name": "x",
          "type": "uint8"
        },
        {
          "name": "y",
          "type": "uint8"
        }
      ],
      "name": "SetPosition",
      "outputs": [],
      "payable": false,
      "stateMutability": "nonpayable",
      "type": "function",
      "signature": "0xc12afa4b"
    }
  ],
  "bytecode": "0x608060405260036000806101000a81548160ff021916908360ff16021790555034801561002b57600080fd5b5033600a60006101000a81548173ffffffffffffffffffffffffffffffffffffffff021916908373ffffffffffffffffffffffffffffffffffffffff16021790555061088b8061007c6000396000f3fe608060405260043610610078576000357c0100000000000000000000000000000000000000000000000000000000900463ffffffff1680630a9f85dd1461007d5780633264a34b146100d4578063bcffcf411461014a578063c12afa4b146101a1578063c51d69f4146101ec578063d4f77b1c1461021d575b600080fd5b34801561008957600080fd5b50610092610234565b604051808273ffffffffffffffffffffffffffffffffffffffff1673ffffffffffffffffffffffffffffffffffffffff16815260200191505060405180910390f35b3480156100e057600080fd5b506100e961025a565b604051808260036000925b8184101561013a5782846020020151600360200280838360005b8381101561012957808201518184015260208101905061010e565b5050505090500192600101926100f4565b9250505091505060405180910390f35b34801561015657600080fd5b5061015f610313565b604051808273ffffffffffffffffffffffffffffffffffffffff1673ffffffffffffffffffffffffffffffffffffffff16815260200191505060405180910390f35b3480156101ad57600080fd5b506101ea600480360360408110156101c457600080fd5b81019080803560ff169060200190929190803560ff169060200190929190505050610339565b005b3480156101f857600080fd5b506102016106fb565b604051808260ff1660ff16815260200191505060405180910390f35b34801561022957600080fd5b5061023261070d565b005b600b60009054906101000a900473ffffffffffffffffffffffffffffffffffffffff1681565b61026261080d565b6001600380602002604051908101604052809291906000905b8282101561030a578382600302016003806020026040519081016040528092919082600380156102f6576020028201915b8160009054906101000a900473ffffffffffffffffffffffffffffffffffffffff1673ffffffffffffffffffffffffffffffffffffffff16815260200190600101908083116102ac575b50505050508152602001906001019061027b565b50505050905090565b600a60009054906101000a900473ffffffffffffffffffffffffffffffffffffffff1681565b600073ffffffffffffffffffffffffffffffffffffffff1660018360ff1660038110151561036357fe5b600302018260ff1660038110151561037757fe5b0160009054906101000a900473ffffffffffffffffffffffffffffffffffffffff1673ffffffffffffffffffffffffffffffffffffffff1614151561044a576040517f08c379a00000000000000000000000000000000000000000000000000000000081526004018080602001828103825260258152602001807f54686520706f736974696f6e20696e2074686520626f617264206973206e6f7481526020017f206672656500000000000000000000000000000000000000000000000000000081525060400191505060405180910390fd5b6000809054906101000a900460ff1660ff168260ff1610151561046957fe5b6000809054906101000a900460ff1660ff168160ff1610151561048857fe5b600c60009054906101000a900473ffffffffffffffffffffffffffffffffffffffff1673ffffffffffffffffffffffffffffffffffffffff163373ffffffffffffffffffffffffffffffffffffffff1614151561054d576040517f08c379a000000000000000000000000000000000000000000000000000000000815260040180806020018281038252601b8152602001807f4974206973206e6f742074686520706c617965722773207475726e000000000081525060200191505060405180910390fd5b3360018360ff1660038110151561056057fe5b600302018260ff1660038110151561057457fe5b0160006101000a81548173ffffffffffffffffffffffffffffffffffffffff021916908373ffffffffffffffffffffffffffffffffffffffff160217905550600a60009054906101000a900473ffffffffffffffffffffffffffffffffffffffff1673ffffffffffffffffffffffffffffffffffffffff16600c60009054906101000a900473ffffffffffffffffffffffffffffffffffffffff1673ffffffffffffffffffffffffffffffffffffffff16141561069357600b60009054906101000a900473ffffffffffffffffffffffffffffffffffffffff16600c60006101000a81548173ffffffffffffffffffffffffffffffffffffffff021916908373ffffffffffffffffffffffffffffffffffffffff1602179055506106f7565b600a60009054906101000a900473ffffffffffffffffffffffffffffffffffffffff16600c60006101000a81548173ffffffffffffffffffffffffffffffffffffffff021916908373ffffffffffffffffffffffffffffffffffffffff1602179055505b5050565b6000809054906101000a900460ff1681565b600073ffffffffffffffffffffffffffffffffffffffff16600b60009054906101000a900473ffffffffffffffffffffffffffffffffffffffff1673ffffffffffffffffffffffffffffffffffffffff1614151561076757fe5b33600b60006101000a81548173ffffffffffffffffffffffffffffffffffffffff021916908373ffffffffffffffffffffffffffffffffffffffff160217905550600b60009054906101000a900473ffffffffffffffffffffffffffffffffffffffff16600c60006101000a81548173ffffffffffffffffffffffffffffffffffffffff021916908373ffffffffffffffffffffffffffffffffffffffff160217905550565b610120604051908101604052806003905b61082661083c565b81526020019060019003908161081e5790505090565b60606040519081016040528060039060208202803883398082019150509050509056fea165627a7a72305820cdb1b8d69835770393cd6ce93a9182a7df1a118a5117519ecf47bf127623b1e60029",
  "source": "pragma solidity ^0.5.0;\n\ncontract Game {\n    uint8 public boardSize = 3; \n\n    address[3][3] board;\n\n    address public playerOne;\n    address public playerTwo;\n\n    address activePlayer;\n\n    constructor () public {\n        playerOne = msg.sender;\n    }\n\n    function joinGame() public {\n        assert(playerTwo == address(0));\n        playerTwo = msg.sender;\n        activePlayer = playerTwo;\n    }\n\n    function getBoard() public view returns(address[3][3] memory){\n        return board;\n    }\n\n    function SetPosition(uint8 x, uint8 y) public {\n        require(board[x][y] == address(0), \"The position in the board is not free\");\n\n        //assert to ensure that no input is larger than the board size\n        assert(x < boardSize);\n        assert(y < boardSize);\n\n        //ensures the player's turn\n        require(msg.sender == activePlayer, \"It is not the player's turn\");\n\n        //position is assigned to the sender\n        board[x][y] = msg.sender;\n\n        if(activePlayer == playerOne){\n            activePlayer = playerTwo;\n        } else {\n            activePlayer = playerOne;\n        }\n    }\n}",
  "sourcePath": "/Users/erinakii/Desktop/Fullstack/stackathon/battleship/contracts/Game.sol",
  "compiler": {
    "name": "solc",
    "version": "0.5.0+commit.1d4f565a.Emscripten.clang"
  },
  "schemaVersion": "3.0.2",
  "updatedAt": "2019-03-07T21:13:03.673Z",
  "devdoc": {
    "methods": {}
  },
  "userdoc": {
    "methods": {}
  }
}